{
  "_format": "hh-sol-artifact-1",
  "contractName": "WavePortal",
  "sourceName": "contracts/WavePortal.sol",
  "abi": [
    {
      "inputs": [],
      "stateMutability": "payable",
      "type": "constructor"
    },
    {
      "anonymous": false,
      "inputs": [
        {
          "indexed": true,
          "internalType": "address",
          "name": "from",
          "type": "address"
        },
        {
          "indexed": false,
          "internalType": "uint256",
          "name": "timestamp",
          "type": "uint256"
        },
        {
          "indexed": false,
          "internalType": "string",
          "name": "message",
          "type": "string"
        }
      ],
      "name": "NewWave",
      "type": "event"
    },
    {
      "anonymous": false,
      "inputs": [
        {
          "indexed": true,
          "internalType": "address",
          "name": "waver",
          "type": "address"
        }
      ],
      "name": "Winner",
      "type": "event"
    },
    {
      "inputs": [],
      "name": "getAllWaves",
      "outputs": [
        {
          "components": [
            {
              "internalType": "address",
              "name": "waver",
              "type": "address"
            },
            {
              "internalType": "string",
              "name": "message",
              "type": "string"
            },
            {
              "internalType": "uint256",
              "name": "timestamp",
              "type": "uint256"
            }
          ],
          "internalType": "struct WavePortal.Wave[]",
          "name": "",
          "type": "tuple[]"
        }
      ],
      "stateMutability": "view",
      "type": "function"
    },
    {
      "inputs": [],
      "name": "getTopWaver",
      "outputs": [
        {
          "components": [
            {
              "internalType": "address",
              "name": "waver",
              "type": "address"
            },
            {
              "internalType": "string",
              "name": "message",
              "type": "string"
            },
            {
              "internalType": "uint256",
              "name": "timestamp",
              "type": "uint256"
            }
          ],
          "internalType": "struct WavePortal.Wave",
          "name": "_top",
          "type": "tuple"
        }
      ],
      "stateMutability": "view",
      "type": "function"
    },
    {
      "inputs": [],
      "name": "getTotalWaves",
      "outputs": [
        {
          "internalType": "uint256",
          "name": "",
          "type": "uint256"
        }
      ],
      "stateMutability": "view",
      "type": "function"
    },
    {
      "inputs": [
        {
          "internalType": "string",
          "name": "_message",
          "type": "string"
        }
      ],
      "name": "wave",
      "outputs": [],
      "stateMutability": "nonpayable",
      "type": "function"
    }
  ],
  "bytecode": "0x608060405262000033604051806060016040528060268152602001620015a9602691396200003960201b6200089b1760201c565b620001cd565b620000d98160405160240162000050919062000146565b6040516020818303038152906040527f41304fac000000000000000000000000000000000000000000000000000000007bffffffffffffffffffffffffffffffffffffffffffffffffffffffff19166020820180517bffffffffffffffffffffffffffffffffffffffffffffffffffffffff8381831617835250505050620000dc60201b60201c565b50565b60008151905060006a636f6e736f6c652e6c6f679050602083016000808483855afa5050505050565b600062000112826200016a565b6200011e818562000175565b93506200013081856020860162000186565b6200013b81620001bc565b840191505092915050565b6000602082019050818103600083015262000162818462000105565b905092915050565b600081519050919050565b600082825260208201905092915050565b60005b83811015620001a657808201518184015260208101905062000189565b83811115620001b6576000848401525b50505050565b6000601f19601f8301169050919050565b6113cc80620001dd6000396000f3fe608060405234801561001057600080fd5b506004361061004c5760003560e01c8063449d46c01461005157806387ec9b8d1461006d5780639a2cdc081461008b578063bd43a908146100a9575b600080fd5b61006b60048036038101906100669190610bda565b6100c7565b005b610075610493565b6040516100829190610f69565b60405180910390f35b6100936106ff565b6040516100a09190610f8b565b60405180910390f35b6100b161074a565b6040516100be9190610e70565b60405180910390f35b42600360003373ffffffffffffffffffffffffffffffffffffffff1673ffffffffffffffffffffffffffffffffffffffff168152602001908152602001600020819055506001600260003373ffffffffffffffffffffffffffffffffffffffff1673ffffffffffffffffffffffffffffffffffffffff168152602001908152602001600020600082825461015b919061109d565b925050819055506001600080828254610174919061109d565b925050819055506101bb6040518060400160405280602081526020017f25732068617320776176656420776974682061206d6573736167653a202573218152503383610934565b600460405180606001604052803373ffffffffffffffffffffffffffffffffffffffff16815260200183815260200142815250908060018154018082558091505060019003906000526020600020906003020160009091909190915060008201518160000160006101000a81548173ffffffffffffffffffffffffffffffffffffffff021916908373ffffffffffffffffffffffffffffffffffffffff160217905550602082015181600101908051906020019061027a929190610a98565b506040820151816002015550503373ffffffffffffffffffffffffffffffffffffffff167f5f7e16dc676677766a70e9c5628aa6c54ddb8b6e5188e2ae1e1f17f1ffbea71642836040516102cf929190610fa6565b60405180910390a26000606460015442446102ea919061109d565b6102f4919061109d565b6102fe919061121d565b905061033f6040518060400160405280601681526020017f52616e646f6d20232067656e6572617465643a20257300000000000000000000815250826109d3565b80600181905550603281101561048f576000655af3107a400090504781111561039d576040517f08c379a000000000000000000000000000000000000000000000000000000000815260040161039490610f29565b60405180910390fd5b60003373ffffffffffffffffffffffffffffffffffffffff16826040516103c390610e5b565b60006040518083038185875af1925050503d8060008114610400576040519150601f19603f3d011682016040523d82523d6000602084013e610405565b606091505b5050905080610449576040517f08c379a000000000000000000000000000000000000000000000000000000000815260040161044090610f49565b60405180910390fd5b3373ffffffffffffffffffffffffffffffffffffffff167f745c90b656b4aafe296c8ca35aeacfe56cb96c90e1d320e5da643fff1051b6c060405160405180910390a250505b5050565b61049b610b1e565b60005b6004805490508110156106fb5760026000836000015173ffffffffffffffffffffffffffffffffffffffff1673ffffffffffffffffffffffffffffffffffffffff16815260200190815260200160002054600260006004848154811061052d577f4e487b7100000000000000000000000000000000000000000000000000000000600052603260045260246000fd5b906000526020600020906003020160000160009054906101000a900473ffffffffffffffffffffffffffffffffffffffff1673ffffffffffffffffffffffffffffffffffffffff1673ffffffffffffffffffffffffffffffffffffffff1681526020019081526020016000205411156106e857600481815481106105da577f4e487b7100000000000000000000000000000000000000000000000000000000600052603260045260246000fd5b90600052602060002090600302016040518060600160405290816000820160009054906101000a900473ffffffffffffffffffffffffffffffffffffffff1673ffffffffffffffffffffffffffffffffffffffff1673ffffffffffffffffffffffffffffffffffffffff16815260200160018201805461065990611171565b80601f016020809104026020016040519081016040528092919081815260200182805461068590611171565b80156106d25780601f106106a7576101008083540402835291602001916106d2565b820191906000526020600020905b8154815290600101906020018083116106b557829003601f168201915b5050505050815260200160028201548152505091505b80806106f3906111d4565b91505061049e565b5090565b60006107426040518060400160405280601781526020017f5765206861766520256420746f74616c207761766573210000000000000000008152506000546109d3565b600054905090565b60606004805480602002602001604051908101604052809291908181526020016000905b8282101561089257838290600052602060002090600302016040518060600160405290816000820160009054906101000a900473ffffffffffffffffffffffffffffffffffffffff1673ffffffffffffffffffffffffffffffffffffffff1673ffffffffffffffffffffffffffffffffffffffff1681526020016001820180546107f790611171565b80601f016020809104026020016040519081016040528092919081815260200182805461082390611171565b80156108705780601f1061084557610100808354040283529160200191610870565b820191906000526020600020905b81548152906001019060200180831161085357829003601f168201915b505050505081526020016002820154815250508152602001906001019061076e565b50505050905090565b610931816040516024016108af9190610e92565b6040516020818303038152906040527f41304fac000000000000000000000000000000000000000000000000000000007bffffffffffffffffffffffffffffffffffffffffffffffffffffffff19166020820180517bffffffffffffffffffffffffffffffffffffffffffffffffffffffff8381831617835250505050610a6f565b50565b6109ce83838360405160240161094c93929190610eb4565b6040516020818303038152906040527fe0e9ad4f000000000000000000000000000000000000000000000000000000007bffffffffffffffffffffffffffffffffffffffffffffffffffffffff19166020820180517bffffffffffffffffffffffffffffffffffffffffffffffffffffffff8381831617835250505050610a6f565b505050565b610a6b82826040516024016109e9929190610ef9565b6040516020818303038152906040527f9710a9d0000000000000000000000000000000000000000000000000000000007bffffffffffffffffffffffffffffffffffffffffffffffffffffffff19166020820180517bffffffffffffffffffffffffffffffffffffffffffffffffffffffff8381831617835250505050610a6f565b5050565b60008151905060006a636f6e736f6c652e6c6f679050602083016000808483855afa5050505050565b828054610aa490611171565b90600052602060002090601f016020900481019282610ac65760008555610b0d565b82601f10610adf57805160ff1916838001178555610b0d565b82800160010185558215610b0d579182015b82811115610b0c578251825591602001919060010190610af1565b5b509050610b1a9190610b55565b5090565b6040518060600160405280600073ffffffffffffffffffffffffffffffffffffffff16815260200160608152602001600081525090565b5b80821115610b6e576000816000905550600101610b56565b5090565b6000610b85610b8084610ffb565b610fd6565b905082815260208101848484011115610b9d57600080fd5b610ba884828561112f565b509392505050565b600082601f830112610bc157600080fd5b8135610bd1848260208601610b72565b91505092915050565b600060208284031215610bec57600080fd5b600082013567ffffffffffffffff811115610c0657600080fd5b610c1284828501610bb0565b91505092915050565b6000610c278383610d9d565b905092915050565b610c38816110f3565b82525050565b610c47816110f3565b82525050565b6000610c588261103c565b610c62818561105f565b935083602082028501610c748561102c565b8060005b85811015610cb05784840389528151610c918582610c1b565b9450610c9c83611052565b925060208a01995050600181019050610c78565b50829750879550505050505092915050565b6000610ccd82611047565b610cd7818561107b565b9350610ce781856020860161113e565b610cf08161130a565b840191505092915050565b6000610d0682611047565b610d10818561108c565b9350610d2081856020860161113e565b610d298161130a565b840191505092915050565b6000610d4160168361108c565b9150610d4c8261131b565b602082019050919050565b6000610d6460268361108c565b9150610d6f82611344565b604082019050919050565b6000610d87600083611070565b9150610d9282611393565b600082019050919050565b6000606083016000830151610db56000860182610c2f565b5060208301518482036020860152610dcd8282610cc2565b9150506040830151610de26040860182610e3d565b508091505092915050565b6000606083016000830151610e056000860182610c2f565b5060208301518482036020860152610e1d8282610cc2565b9150506040830151610e326040860182610e3d565b508091505092915050565b610e4681611125565b82525050565b610e5581611125565b82525050565b6000610e6682610d7a565b9150819050919050565b60006020820190508181036000830152610e8a8184610c4d565b905092915050565b60006020820190508181036000830152610eac8184610cfb565b905092915050565b60006060820190508181036000830152610ece8186610cfb565b9050610edd6020830185610c3e565b8181036040830152610eef8184610cfb565b9050949350505050565b60006040820190508181036000830152610f138185610cfb565b9050610f226020830184610e4c565b9392505050565b60006020820190508181036000830152610f4281610d34565b9050919050565b60006020820190508181036000830152610f6281610d57565b9050919050565b60006020820190508181036000830152610f838184610ded565b905092915050565b6000602082019050610fa06000830184610e4c565b92915050565b6000604082019050610fbb6000830185610e4c565b8181036020830152610fcd8184610cfb565b90509392505050565b6000610fe0610ff1565b9050610fec82826111a3565b919050565b6000604051905090565b600067ffffffffffffffff821115611016576110156112db565b5b61101f8261130a565b9050602081019050919050565b6000819050602082019050919050565b600081519050919050565b600081519050919050565b6000602082019050919050565b600082825260208201905092915050565b600081905092915050565b600082825260208201905092915050565b600082825260208201905092915050565b60006110a882611125565b91506110b383611125565b9250827fffffffffffffffffffffffffffffffffffffffffffffffffffffffffffffffff038211156110e8576110e761124e565b5b828201905092915050565b60006110fe82611105565b9050919050565b600073ffffffffffffffffffffffffffffffffffffffff82169050919050565b6000819050919050565b82818337600083830152505050565b60005b8381101561115c578082015181840152602081019050611141565b8381111561116b576000848401525b50505050565b6000600282049050600182168061118957607f821691505b6020821081141561119d5761119c6112ac565b5b50919050565b6111ac8261130a565b810181811067ffffffffffffffff821117156111cb576111ca6112db565b5b80604052505050565b60006111df82611125565b91507fffffffffffffffffffffffffffffffffffffffffffffffffffffffffffffffff8214156112125761121161124e565b5b600182019050919050565b600061122882611125565b915061123383611125565b9250826112435761124261127d565b5b828206905092915050565b7f4e487b7100000000000000000000000000000000000000000000000000000000600052601160045260246000fd5b7f4e487b7100000000000000000000000000000000000000000000000000000000600052601260045260246000fd5b7f4e487b7100000000000000000000000000000000000000000000000000000000600052602260045260246000fd5b7f4e487b7100000000000000000000000000000000000000000000000000000000600052604160045260246000fd5b6000601f19601f8301169050919050565b7f42616c616e636520697320696e737566666963656e7400000000000000000000600082015250565b7f4661696c656420746f207769746864726177206d6f6e65792066726f6d20636f60008201527f6e74726163740000000000000000000000000000000000000000000000000000602082015250565b5056fea2646970667358221220e137177160ed23c597669a4d9668a071ea906d30b669b6e40b1580fa3db76caa64736f6c63430008040033596f20796f2c204920616d206120636f6e747261637420616e64204920616d20736d61727421",
  "linkReferences": {},
  "deployedLinkReferences": {}
}